{"abi":[{"type":"constructor","inputs":[{"name":"_relayer","type":"address","internalType":"address"}],"stateMutability":"nonpayable"},{"type":"function","name":"bond","inputs":[{"name":"","type":"address","internalType":"address"}],"outputs":[{"name":"","type":"uint256","internalType":"uint256"}],"stateMutability":"view"},{"type":"function","name":"owner","inputs":[],"outputs":[{"name":"","type":"address","internalType":"address"}],"stateMutability":"view"},{"type":"function","name":"relayer","inputs":[],"outputs":[{"name":"","type":"address","internalType":"address"}],"stateMutability":"view"},{"type":"function","name":"setRelayer","inputs":[{"name":"_r","type":"address","internalType":"address"}],"outputs":[],"stateMutability":"nonpayable"},{"type":"function","name":"slash","inputs":[{"name":"rider","type":"address","internalType":"address"},{"name":"amount","type":"uint256","internalType":"uint256"}],"outputs":[],"stateMutability":"nonpayable"},{"type":"function","name":"stake","inputs":[{"name":"amount","type":"uint256","internalType":"uint256"}],"outputs":[],"stateMutability":"nonpayable"},{"type":"function","name":"withdraw","inputs":[{"name":"amount","type":"uint256","internalType":"uint256"}],"outputs":[],"stateMutability":"nonpayable"},{"type":"event","name":"BondSlashed","inputs":[{"name":"rider","type":"address","indexed":true,"internalType":"address"},{"name":"amount","type":"uint256","indexed":false,"internalType":"uint256"}],"anonymous":false},{"type":"event","name":"BondStaked","inputs":[{"name":"rider","type":"address","indexed":true,"internalType":"address"},{"name":"amount","type":"uint256","indexed":false,"internalType":"uint256"}],"anonymous":false},{"type":"event","name":"BondWithdrawn","inputs":[{"name":"rider","type":"address","indexed":true,"internalType":"address"},{"name":"amount","type":"uint256","indexed":false,"internalType":"uint256"}],"anonymous":false}],"bytecode":{"object":"0x608060405234801561000f575f80fd5b5060405161051b38038061051b83398101604081905261002e91610060565b5f8054336001600160a01b031991821617909155600180549091166001600160a01b039290921691909117905561008d565b5f60208284031215610070575f80fd5b81516001600160a01b0381168114610086575f80fd5b9392505050565b6104818061009a5f395ff3fe608060405234801561000f575f80fd5b506004361061007a575f3560e01c80636548e9bc116100585780636548e9bc146100d85780638406c079146100eb5780638da5cb5b14610116578063a694fc3a14610128575f80fd5b806302fb4d851461007e578063247ce85b146100935780632e1a7d4d146100c5575b5f80fd5b61009161008c3660046103ac565b61013b565b005b6100b26100a13660046103d4565b60026020525f908152604090205481565b6040519081526020015b60405180910390f35b6100916100d33660046103f4565b61023b565b6100916100e63660046103d4565b6102db565b6001546100fe906001600160a01b031681565b6040516001600160a01b0390911681526020016100bc565b5f546100fe906001600160a01b031681565b6100916101363660046103f4565b61033c565b6001546001600160a01b031633146101805760405162461bcd60e51b815260206004820152600360248201526214915360ea1b60448201526064015b60405180910390fd5b6001600160a01b0382165f908152600260205260409020548111156101cd5760405162461bcd60e51b815260206004820152600360248201526210905360ea1b6044820152606401610177565b6001600160a01b0382165f90815260026020526040812080548392906101f490849061041f565b90915550506040518181526001600160a01b038316907f9c78aa0eb382c004d853205ff9929a2caed00de0cdd490849c8b84d7f461a39d9060200160405180910390a25050565b335f9081526002602052604090205481111561027f5760405162461bcd60e51b815260206004820152600360248201526210905360ea1b6044820152606401610177565b335f908152600260205260408120805483929061029d90849061041f565b909155505060405181815233907f0d41118e36df44efb77a471fc49fb9c0be0406d802ef95520e9fbf606e65b455906020015b60405180910390a250565b5f546001600160a01b0316331461031a5760405162461bcd60e51b815260206004820152600360248201526227aba760e91b6044820152606401610177565b600180546001600160a01b0319166001600160a01b0392909216919091179055565b335f908152600260205260408120805483929061035a908490610438565b909155505060405181815233907fd1abf1173d9287eccea1d3061b4c7a49b9d2be69ec0990f830c3e8a0f20a7d90906020016102d0565b80356001600160a01b03811681146103a7575f80fd5b919050565b5f80604083850312156103bd575f80fd5b6103c683610391565b946020939093013593505050565b5f602082840312156103e4575f80fd5b6103ed82610391565b9392505050565b5f60208284031215610404575f80fd5b5035919050565b634e487b7160e01b5f52601160045260245ffd5b818103818111156104325761043261040b565b92915050565b808201808211156104325761043261040b56fea264697066735822122031d55c6c623e65ec52d52627c5fc5dcfb00f6360d61f1bae608f8fdd1d8237a864736f6c63430008140033","linkReferences":{}},"methodIdentifiers":{"bond(address)":"247ce85b","owner()":"8da5cb5b","relayer()":"8406c079","setRelayer(address)":"6548e9bc","slash(address,uint256)":"02fb4d85","stake(uint256)":"a694fc3a","withdraw(uint256)":"2e1a7d4d"},"id":2}