{"abi":[{"type":"constructor","inputs":[{"name":"_relayer","type":"address","internalType":"address"}],"stateMutability":"nonpayable"},{"type":"function","name":"bond","inputs":[{"name":"","type":"address","internalType":"address"}],"outputs":[{"name":"","type":"uint256","internalType":"uint256"}],"stateMutability":"view"},{"type":"function","name":"owner","inputs":[],"outputs":[{"name":"","type":"address","internalType":"address"}],"stateMutability":"view"},{"type":"function","name":"relayer","inputs":[],"outputs":[{"name":"","type":"address","internalType":"address"}],"stateMutability":"view"},{"type":"function","name":"setRelayer","inputs":[{"name":"_r","type":"address","internalType":"address"}],"outputs":[],"stateMutability":"nonpayable"},{"type":"function","name":"slash","inputs":[{"name":"rider","type":"address","internalType":"address"},{"name":"amount","type":"uint256","internalType":"uint256"}],"outputs":[],"stateMutability":"nonpayable"},{"type":"function","name":"stake","inputs":[{"name":"amount","type":"uint256","internalType":"uint256"}],"outputs":[],"stateMutability":"nonpayable"},{"type":"function","name":"withdraw","inputs":[{"name":"amount","type":"uint256","internalType":"uint256"}],"outputs":[],"stateMutability":"nonpayable"},{"type":"event","name":"BondSlashed","inputs":[{"name":"rider","type":"address","indexed":true,"internalType":"address"},{"name":"amount","type":"uint256","indexed":false,"internalType":"uint256"}],"anonymous":false},{"type":"event","name":"BondStaked","inputs":[{"name":"rider","type":"address","indexed":true,"internalType":"address"},{"name":"amount","type":"uint256","indexed":false,"internalType":"uint256"}],"anonymous":false},{"type":"event","name":"BondWithdrawn","inputs":[{"name":"rider","type":"address","indexed":true,"internalType":"address"},{"name":"amount","type":"uint256","indexed":false,"internalType":"uint256"}],"anonymous":false}],"bytecode":{"object":"0x60803461007857601f61044b38819003918201601f19168301916001600160401b0383118484101761007c5780849260209460405283398101031261007857516001600160a01b038116908190036100785760018060a01b031933815f5416175f5560015416176001556040516103ba90816100918239f35b5f80fd5b634e487b7160e01b5f52604160045260245ffdfe6080604081815260049081361015610015575f80fd5b5f92833560e01c90816302fb4d851461025757508063247ce85b1461021f5780632e1a7d4d146101ae5780636548e9bc146101355780638406c0791461010c5780638da5cb5b146100e05763a694fc3a1461006e575f80fd5b346100dc5760203660031901126100dc5781359133845260026020528184208054918483018093116100c9575055519081527fd1abf1173d9287eccea1d3061b4c7a49b9d2be69ec0990f830c3e8a0f20a7d9060203392a280f35b634e487b7160e01b865260119052602485fd5b8280fd5b838234610108578160031936011261010857905490516001600160a01b039091168152602090f35b5080fd5b83823461010857816003193601126101085760015490516001600160a01b039091168152602090f35b5090346100dc5760203660031901126100dc57610150610317565b83546001600160a01b03939192919084163303610185575050166bffffffffffffffffffffffff60a01b600154161760015580f35b906020606492519162461bcd60e51b8352820152600360248201526227aba760e91b6044820152fd5b5090346100dc5760203660031901126100dc57359033835260026020526101da82828520541015610331565b33835260026020528083206101f0838254610363565b9055519081527f0d41118e36df44efb77a471fc49fb9c0be0406d802ef95520e9fbf606e65b45560203392a280f35b8382346101085760203660031901126101085760209181906001600160a01b03610247610317565b1681526002845220549051908152f35b9192905034610313578260031936011261031357610273610317565b600154602435936001600160a01b03939091841633036102ec575050916020917f9c78aa0eb382c004d853205ff9929a2caed00de0cdd490849c8b84d7f461a39d931693848652600283526102cd82828820541015610331565b848652600283528086206102e2838254610363565b905551908152a280f35b62461bcd60e51b8252602090820152600360248201526214915360ea1b6044820152606490fd5b8380fd5b600435906001600160a01b038216820361032d57565b5f80fd5b1561033857565b60405162461bcd60e51b815260206004820152600360248201526210905360ea1b6044820152606490fd5b9190820391821161037057565b634e487b7160e01b5f52601160045260245ffdfea264697066735822122038ec3c18afeb6e98afde235c916ff3220b3f2ad3d0a36ca51239a642c84d9b8164736f6c63430008140033","linkReferences":{}},"methodIdentifiers":{"bond(address)":"247ce85b","owner()":"8da5cb5b","relayer()":"8406c079","setRelayer(address)":"6548e9bc","slash(address,uint256)":"02fb4d85","stake(uint256)":"a694fc3a","withdraw(uint256)":"2e1a7d4d"},"id":3}