{"abi":[{"type":"constructor","inputs":[{"name":"_relayer","type":"address","internalType":"address"}],"stateMutability":"nonpayable"},{"type":"function","name":"merchant","inputs":[{"name":"","type":"address","internalType":"address"}],"outputs":[{"name":"","type":"bool","internalType":"bool"}],"stateMutability":"view"},{"type":"function","name":"owner","inputs":[],"outputs":[{"name":"","type":"address","internalType":"address"}],"stateMutability":"view"},{"type":"function","name":"relayer","inputs":[],"outputs":[{"name":"","type":"address","internalType":"address"}],"stateMutability":"view"},{"type":"function","name":"setMerchant","inputs":[{"name":"m","type":"address","internalType":"address"},{"name":"allowed","type":"bool","internalType":"bool"}],"outputs":[],"stateMutability":"nonpayable"},{"type":"function","name":"setRelayer","inputs":[{"name":"_r","type":"address","internalType":"address"}],"outputs":[],"stateMutability":"nonpayable"},{"type":"function","name":"spend","inputs":[{"name":"tripId","type":"bytes32","internalType":"bytes32"},{"name":"rider","type":"address","internalType":"address"},{"name":"m","type":"address","internalType":"address"},{"name":"amount","type":"uint256","internalType":"uint256"}],"outputs":[],"stateMutability":"nonpayable"},{"type":"event","name":"FuelSpent","inputs":[{"name":"tripId","type":"bytes32","indexed":true,"internalType":"bytes32"},{"name":"rider","type":"address","indexed":true,"internalType":"address"},{"name":"m","type":"address","indexed":true,"internalType":"address"},{"name":"amount","type":"uint256","indexed":false,"internalType":"uint256"}],"anonymous":false},{"type":"event","name":"MerchantUpdated","inputs":[{"name":"m","type":"address","indexed":true,"internalType":"address"},{"name":"allowed","type":"bool","indexed":false,"internalType":"bool"}],"anonymous":false}],"bytecode":{"object":"0x608060405234801561000f575f80fd5b5060405161047c38038061047c83398101604081905261002e91610060565b5f8054336001600160a01b031991821617909155600180549091166001600160a01b039290921691909117905561008d565b5f60208284031215610070575f80fd5b81516001600160a01b0381168114610086575f80fd5b9392505050565b6103e28061009a5f395ff3fe608060405234801561000f575f80fd5b5060043610610060575f3560e01c80631c00dd6614610064578063215c9417146100795780636548e9bc146100b0578063801ae66f146100c35780638406c079146100d65780638da5cb5b14610101575b5f80fd5b610077610072366004610312565b610113565b005b61009b610087366004610353565b60026020525f908152604090205460ff1681565b60405190151581526020015b60405180910390f35b6100776100be366004610353565b6101f9565b6100776100d1366004610373565b61025a565b6001546100e9906001600160a01b031681565b6040516001600160a01b0390911681526020016100a7565b5f546100e9906001600160a01b031681565b6001546001600160a01b031633146101585760405162461bcd60e51b815260206004820152600360248201526214915360ea1b60448201526064015b60405180910390fd5b6001600160a01b0382165f9081526002602052604090205460ff166101a55760405162461bcd60e51b815260206004820152600360248201526226a2a960e91b604482015260640161014f565b816001600160a01b0316836001600160a01b0316857fe9023c53a447095bdc9cf1cea3d9fd96c639240fe8d720405a1f6865af9f7b4c846040516101eb91815260200190565b60405180910390a450505050565b5f546001600160a01b031633146102385760405162461bcd60e51b815260206004820152600360248201526227aba760e91b604482015260640161014f565b600180546001600160a01b0319166001600160a01b0392909216919091179055565b5f546001600160a01b031633146102995760405162461bcd60e51b815260206004820152600360248201526227aba760e91b604482015260640161014f565b6001600160a01b0382165f81815260026020908152604091829020805460ff191685151590811790915591519182527f72dc6646d06cd7edf9697c0ef5d47658966f3b678efbbacce0b1873eed7f8ad3910160405180910390a25050565b80356001600160a01b038116811461030d575f80fd5b919050565b5f805f8060808587031215610325575f80fd5b84359350610335602086016102f7565b9250610343604086016102f7565b9396929550929360600135925050565b5f60208284031215610363575f80fd5b61036c826102f7565b9392505050565b5f8060408385031215610384575f80fd5b61038d836102f7565b9150602083013580151581146103a1575f80fd5b80915050925092905056fea264697066735822122084c79984d9f5dde868c5ea13aa115f2036ddc58dddb793290ab2632414b81dff64736f6c63430008140033","linkReferences":{}},"methodIdentifiers":{"merchant(address)":"215c9417","owner()":"8da5cb5b","relayer()":"8406c079","setMerchant(address,bool)":"801ae66f","setRelayer(address)":"6548e9bc","spend(bytes32,address,address,uint256)":"1c00dd66"},"id":0}