{"abi":[{"type":"constructor","inputs":[{"name":"_relayer","type":"address","internalType":"address"}],"stateMutability":"nonpayable"},{"type":"function","name":"merchant","inputs":[{"name":"","type":"address","internalType":"address"}],"outputs":[{"name":"","type":"bool","internalType":"bool"}],"stateMutability":"view"},{"type":"function","name":"owner","inputs":[],"outputs":[{"name":"","type":"address","internalType":"address"}],"stateMutability":"view"},{"type":"function","name":"relayer","inputs":[],"outputs":[{"name":"","type":"address","internalType":"address"}],"stateMutability":"view"},{"type":"function","name":"setMerchant","inputs":[{"name":"m","type":"address","internalType":"address"},{"name":"allowed","type":"bool","internalType":"bool"}],"outputs":[],"stateMutability":"nonpayable"},{"type":"function","name":"setRelayer","inputs":[{"name":"_r","type":"address","internalType":"address"}],"outputs":[],"stateMutability":"nonpayable"},{"type":"function","name":"spend","inputs":[{"name":"tripId","type":"bytes32","internalType":"bytes32"},{"name":"rider","type":"address","internalType":"address"},{"name":"m","type":"address","internalType":"address"},{"name":"amount","type":"uint256","internalType":"uint256"}],"outputs":[],"stateMutability":"nonpayable"},{"type":"event","name":"FuelSpent","inputs":[{"name":"tripId","type":"bytes32","indexed":true,"internalType":"bytes32"},{"name":"rider","type":"address","indexed":true,"internalType":"address"},{"name":"m","type":"address","indexed":true,"internalType":"address"},{"name":"amount","type":"uint256","indexed":false,"internalType":"uint256"}],"anonymous":false},{"type":"event","name":"MerchantUpdated","inputs":[{"name":"m","type":"address","indexed":true,"internalType":"address"},{"name":"allowed","type":"bool","indexed":false,"internalType":"bool"}],"anonymous":false}],"bytecode":{"object":"0x60803461007857601f6103c438819003918201601f19168301916001600160401b0383118484101761007c5780849260209460405283398101031261007857516001600160a01b038116908190036100785760018060a01b031933815f5416175f55600154161760015560405161033390816100918239f35b5f80fd5b634e487b7160e01b5f52604160045260245ffdfe608060408181526004361015610013575f80fd5b5f91823560e01c9081631c00dd66146101c957508063215c94171461018c5780636548e9bc1461013a578063801ae66f146100b35780638406c0791461008b57638da5cb5b14610061575f80fd5b34610087578160031936011261008757905490516001600160a01b039091168152602090f35b5080fd5b503461008757816003193601126100875760015490516001600160a01b039091168152602090f35b50346100875780600319360112610087576100cc6102b1565b60243590811515809203610136577f72dc6646d06cd7edf9697c0ef5d47658966f3b678efbbacce0b1873eed7f8ad39160209160018060a01b03906101158288541633146102cb565b16938486526002835280862060ff1981541660ff841617905551908152a280f35b8380fd5b8234610189576020366003190112610189576101546102b1565b81546001600160a01b03919061016d90831633146102cb565b166bffffffffffffffffffffffff60a01b600154161760015580f35b80fd5b50346100875760203660031901126100875760209160ff9082906001600160a01b036101b66102b1565b1681526002855220541690519015158152f35b919050346102ad5760803660031901126102ad576001600160a01b03916024358381169291908390036102a957604435938085168095036102a55760015416330361027d5750828452600260205260ff818520541615610254575160643581527fe9023c53a447095bdc9cf1cea3d9fd96c639240fe8d720405a1f6865af9f7b4c602060043592a480f35b5162461bcd60e51b815260206004820152600360248201526226a2a960e91b6044820152606490fd5b62461bcd60e51b815260206004820152600360248201526214915360ea1b6044820152606490fd5b8580fd5b8480fd5b8280fd5b600435906001600160a01b03821682036102c757565b5f80fd5b156102d257565b60405162461bcd60e51b815260206004820152600360248201526227aba760e91b6044820152606490fdfea2646970667358221220c175cf5febbe6cf8769c674bd798f5c339ab712a1838a3d8e0c0e5398a5b5f1e64736f6c63430008140033","linkReferences":{}},"methodIdentifiers":{"merchant(address)":"215c9417","owner()":"8da5cb5b","relayer()":"8406c079","setMerchant(address,bool)":"801ae66f","setRelayer(address)":"6548e9bc","spend(bytes32,address,address,uint256)":"1c00dd66"},"id":0}