{"abi":[{"type":"function","name":"allowance","inputs":[{"name":"","type":"address","internalType":"address"},{"name":"","type":"address","internalType":"address"}],"outputs":[{"name":"","type":"uint256","internalType":"uint256"}],"stateMutability":"view"},{"type":"function","name":"approve","inputs":[{"name":"spender","type":"address","internalType":"address"},{"name":"amount","type":"uint256","internalType":"uint256"}],"outputs":[{"name":"","type":"bool","internalType":"bool"}],"stateMutability":"nonpayable"},{"type":"function","name":"balanceOf","inputs":[{"name":"","type":"address","internalType":"address"}],"outputs":[{"name":"","type":"uint256","internalType":"uint256"}],"stateMutability":"view"},{"type":"function","name":"decimals","inputs":[],"outputs":[{"name":"","type":"uint8","internalType":"uint8"}],"stateMutability":"view"},{"type":"function","name":"mint","inputs":[{"name":"to","type":"address","internalType":"address"},{"name":"amount","type":"uint256","internalType":"uint256"}],"outputs":[],"stateMutability":"nonpayable"},{"type":"function","name":"name","inputs":[],"outputs":[{"name":"","type":"string","internalType":"string"}],"stateMutability":"view"},{"type":"function","name":"symbol","inputs":[],"outputs":[{"name":"","type":"string","internalType":"string"}],"stateMutability":"view"},{"type":"function","name":"transfer","inputs":[{"name":"to","type":"address","internalType":"address"},{"name":"amount","type":"uint256","internalType":"uint256"}],"outputs":[{"name":"","type":"bool","internalType":"bool"}],"stateMutability":"nonpayable"},{"type":"function","name":"transferFrom","inputs":[{"name":"from","type":"address","internalType":"address"},{"name":"to","type":"address","internalType":"address"},{"name":"amount","type":"uint256","internalType":"uint256"}],"outputs":[{"name":"","type":"bool","internalType":"bool"}],"stateMutability":"nonpayable"},{"type":"event","name":"Approval","inputs":[{"name":"owner","type":"address","indexed":true,"internalType":"address"},{"name":"spender","type":"address","indexed":true,"internalType":"address"},{"name":"value","type":"uint256","indexed":false,"internalType":"uint256"}],"anonymous":false},{"type":"event","name":"Transfer","inputs":[{"name":"from","type":"address","indexed":true,"internalType":"address"},{"name":"to","type":"address","indexed":true,"internalType":"address"},{"name":"value","type":"uint256","indexed":false,"internalType":"uint256"}],"anonymous":false}],"bytecode":{"object":"0x6080604052346100c6575f61001481546100ca565b601f811161009c575b5060126826b7b1b59031a723a760b91b01815560019061003d82546100ca565b90601f8211610070575b60086331a723a760e11b0183556002805460ff191660121790556040516106d790816101038239f35b82815282601f60208320930160051c8301925b838110610091575050610047565b828155018390610083565b818052601f60208320910160051c8101905b8181106100bb575061001d565b8281556001016100ae565b5f80fd5b90600182811c921680156100f8575b60208310146100e457565b634e487b7160e01b5f52602260045260245ffd5b91607f16916100d956fe60806040818152600480361015610014575f80fd5b5f92833560e01c90816306fdde03146104d757508063095ea7b31461046957806323b872dd14610358578063313ce5671461033657806340c10f19146102cc57806370a082311461029457806395d89b4114610173578063a9059cbb146100ce5763dd62ed3e14610083575f80fd5b346100ca57816003193601126100ca5760209282916100a0610611565b6100a861062b565b6001600160a01b03918216845291865283832091168252845220549051908152f35b8280fd5b50503461016f578060031936011261016f576020916100eb610611565b82602435913384526003865261010683838620541015610662565b3384526003865281842061011b848254610694565b90556001600160a01b0316808452600386529220805461013c908390610641565b905582519081527fddf252ad1be2c89b69c2b068fc378daa952ba7f163c4a11628f55a4df523b3ef843392a35160018152f35b5080fd5b5091903461016f578160031936011261016f5780519082600180549081811c9080831692831561028a575b60209384841081146102775783885290811561025b5750600114610206575b505050829003601f01601f191682019267ffffffffffffffff8411838510176101f357508291826101ef9252826105ca565b0390f35b634e487b7160e01b815260418552602490fd5b8087529192508591837fb10e2d527612073b26eecdfd717e6a320cf44b4afac2b0732d9fcbe2b7fa0cf65b83851061024757505050508301015f80806101bd565b805488860183015293019284908201610231565b60ff1916878501525050151560051b84010190505f80806101bd565b634e487b7160e01b895260228a52602489fd5b91607f169161019e565b50503461016f57602036600319011261016f5760209181906001600160a01b036102bc610611565b1681526003845220549051908152f35b50503461016f578060031936011261016f57817fddf252ad1be2c89b69c2b068fc378daa952ba7f163c4a11628f55a4df523b3ef602061030a610611565b6024359060018060a01b0316948585526003835280852061032c838254610641565b905551908152a380f35b50503461016f578160031936011261016f5760209060ff600254169051908152f35b50913461046657606036600319011261046657610373610611565b61037b61062b565b906044359060018060a01b0380911692838552602096600388526103a484888820541015610662565b848652808852868620338752885283878720541061043b5787927fddf252ad1be2c89b69c2b068fc378daa952ba7f163c4a11628f55a4df523b3ef94928892878952855282882033895285528288206103fe858254610694565b905586885260038552828820610415858254610694565b90551695868152600384522061042c828254610641565b90558551908152a35160018152f35b865162461bcd60e51b81529081018890526005602482015264414c4c4f5760d81b6044820152606490fd5b80fd5b50346100ca57816003193601126100ca57602092610485610611565b918360243592839233825287528181209460018060a01b0316948582528752205582519081527f8c5be1e5ebec7d5bd14f71427d1e84f3dd0314c0f7b2291e5b200ac8c7c3b925843392a35160018152f35b84915083346100ca57826003193601126100ca57828354600181811c908083169283156105c0575b6020938484108114610277578388529081156105a4575060011461054f57505050829003601f01601f191682019267ffffffffffffffff8411838510176101f357508291826101ef9252826105ca565b8680529192508591837f290decd9548b62a8d60345a988386fc84ba6bc95484008f6362f93160ef3e5635b83851061059057505050508301018580806101bd565b80548886018301529301928490820161057a565b60ff1916878501525050151560051b84010190508580806101bd565b91607f16916104ff565b602080825282518183018190529093925f5b8281106105fd57505060409293505f838284010152601f8019910116010190565b8181018601518482016040015285016105dc565b600435906001600160a01b038216820361062757565b5f80fd5b602435906001600160a01b038216820361062757565b9190820180921161064e57565b634e487b7160e01b5f52601160045260245ffd5b1561066957565b60405162461bcd60e51b815260206004820152600360248201526210905360ea1b6044820152606490fd5b9190820391821161064e5756fea2646970667358221220c84d3b12176e0b70240b66193d5e9b10f170ad0fe91a5f9e019db387893f6b1864736f6c63430008140033","linkReferences":{}},"methodIdentifiers":{"allowance(address,address)":"dd62ed3e","approve(address,uint256)":"095ea7b3","balanceOf(address)":"70a08231","decimals()":"313ce567","mint(address,uint256)":"40c10f19","name()":"06fdde03","symbol()":"95d89b41","transfer(address,uint256)":"a9059cbb","transferFrom(address,address,uint256)":"23b872dd"},"id":2}