{"abi":[{"type":"constructor","inputs":[{"name":"_relayer","type":"address","internalType":"address"}],"stateMutability":"nonpayable"},{"type":"function","name":"createEscrow","inputs":[{"name":"id","type":"bytes32","internalType":"bytes32"},{"name":"customer","type":"address","internalType":"address"},{"name":"rider","type":"address","internalType":"address"},{"name":"total","type":"uint256","internalType":"uint256"}],"outputs":[],"stateMutability":"nonpayable"},{"type":"function","name":"freeze","inputs":[{"name":"id","type":"bytes32","internalType":"bytes32"}],"outputs":[],"stateMutability":"nonpayable"},{"type":"function","name":"owner","inputs":[],"outputs":[{"name":"","type":"address","internalType":"address"}],"stateMutability":"view"},{"type":"function","name":"relayer","inputs":[],"outputs":[{"name":"","type":"address","internalType":"address"}],"stateMutability":"view"},{"type":"function","name":"setRelayer","inputs":[{"name":"_r","type":"address","internalType":"address"}],"outputs":[],"stateMutability":"nonpayable"},{"type":"function","name":"settle","inputs":[{"name":"id","type":"bytes32","internalType":"bytes32"}],"outputs":[],"stateMutability":"nonpayable"},{"type":"function","name":"tickStream","inputs":[{"name":"id","type":"bytes32","internalType":"bytes32"},{"name":"amount","type":"uint256","internalType":"uint256"}],"outputs":[],"stateMutability":"nonpayable"},{"type":"function","name":"trips","inputs":[{"name":"","type":"bytes32","internalType":"bytes32"}],"outputs":[{"name":"customer","type":"address","internalType":"address"},{"name":"rider","type":"address","internalType":"address"},{"name":"total","type":"uint256","internalType":"uint256"},{"name":"operationalCap","type":"uint256","internalType":"uint256"},{"name":"streamed","type":"uint256","internalType":"uint256"},{"name":"held","type":"uint256","internalType":"uint256"},{"name":"frozen","type":"bool","internalType":"bool"},{"name":"settled","type":"bool","internalType":"bool"}],"stateMutability":"view"},{"type":"function","name":"unfreeze","inputs":[{"name":"id","type":"bytes32","internalType":"bytes32"}],"outputs":[],"stateMutability":"nonpayable"},{"type":"event","name":"EscrowCreated","inputs":[{"name":"id","type":"bytes32","indexed":true,"internalType":"bytes32"},{"name":"customer","type":"address","indexed":false,"internalType":"address"},{"name":"rider","type":"address","indexed":false,"internalType":"address"},{"name":"total","type":"uint256","indexed":false,"internalType":"uint256"},{"name":"operationalCap","type":"uint256","indexed":false,"internalType":"uint256"},{"name":"held","type":"uint256","indexed":false,"internalType":"uint256"}],"anonymous":false},{"type":"event","name":"StreamFrozen","inputs":[{"name":"id","type":"bytes32","indexed":true,"internalType":"bytes32"}],"anonymous":false},{"type":"event","name":"StreamTicked","inputs":[{"name":"id","type":"bytes32","indexed":true,"internalType":"bytes32"},{"name":"amount","type":"uint256","indexed":false,"internalType":"uint256"},{"name":"streamed","type":"uint256","indexed":false,"internalType":"uint256"}],"anonymous":false},{"type":"event","name":"StreamUnfrozen","inputs":[{"name":"id","type":"bytes32","indexed":true,"internalType":"bytes32"}],"anonymous":false},{"type":"event","name":"TripSettled","inputs":[{"name":"id","type":"bytes32","indexed":true,"internalType":"bytes32"},{"name":"paidOperational","type":"uint256","indexed":false,"internalType":"uint256"},{"name":"paidHeld","type":"uint256","indexed":false,"internalType":"uint256"}],"anonymous":false}],"bytecode":{"object":"0x608060405234801561000f575f80fd5b50604051610a8a380380610a8a83398101604081905261002e91610060565b5f8054336001600160a01b031991821617909155600180549091166001600160a01b039290921691909117905561008d565b5f60208284031215610070575f80fd5b81516001600160a01b0381168114610086575f80fd5b9392505050565b6109f08061009a5f395ff3fe608060405234801561000f575f80fd5b5060043610610090575f3560e01c80638da5cb5b116100635780638da5cb5b146100ff578063987757dd146101115780639957e7f114610124578063d3bbcfbd14610137578063ec13cc7b146101e4575f80fd5b80630f86b9e4146100945780636548e9bc146100a95780636e629653146100bc5780638406c079146100cf575b5f80fd5b6100a76100a2366004610857565b6101f7565b005b6100a76100b7366004610892565b610383565b6100a76100ca3660046108b2565b6103e4565b6001546100e2906001600160a01b031681565b6040516001600160a01b0390911681526020015b60405180910390f35b5f546100e2906001600160a01b031681565b6100a761011f3660046108f3565b610612565b6100a76101323660046108f3565b61070e565b61019a6101453660046108f3565b600260208190525f918252604090912080546001820154928201546003830154600484015460058501546006909501546001600160a01b03948516969094169492939192909160ff8082169161010090041688565b604080516001600160a01b03998a168152989097166020890152958701949094526060860192909252608085015260a0840152151560c0830152151560e0820152610100016100f6565b6100a76101f23660046108f3565b6107b2565b6001546001600160a01b0316331461022a5760405162461bcd60e51b81526004016102219061090a565b60405180910390fd5b5f82815260026020819052604082209081015490910361025c5760405162461bcd60e51b815260040161022190610927565b600681015460ff16156102975760405162461bcd60e51b815260206004820152600360248201526223292d60e91b6044820152606401610221565b6006810154610100900460ff16156102d75760405162461bcd60e51b815260206004820152600360248201526214d15560ea1b6044820152606401610221565b80600301548282600401546102ec9190610958565b11156103205760405162461bcd60e51b815260206004820152600360248201526204341560ec1b6044820152606401610221565b81816004015f8282546103339190610958565b9091555050600481015460405184917ff8f7e226ede783bd6bd61a56e2d62063b1cdba9a55c9f3356459903c1a1babe59161037691868252602082015260400190565b60405180910390a2505050565b5f546001600160a01b031633146103c25760405162461bcd60e51b815260206004820152600360248201526227aba760e91b6044820152606401610221565b600180546001600160a01b0319166001600160a01b0392909216919091179055565b6001546001600160a01b0316331461040e5760405162461bcd60e51b81526004016102219061090a565b5f8481526002602081905260409091200154156104565760405162461bcd60e51b815260206004820152600660248201526545584953545360d01b6044820152606401610221565b5f6064610464836046610971565b61046e9190610988565b90505f61047b82846109a7565b9050604051806101000160405280866001600160a01b03168152602001856001600160a01b031681526020018481526020018281526020015f81526020018381526020015f151581526020015f151581525060025f8881526020019081526020015f205f820151815f015f6101000a8154816001600160a01b0302191690836001600160a01b031602179055506020820151816001015f6101000a8154816001600160a01b0302191690836001600160a01b0316021790555060408201518160020155606082015181600301556080820151816004015560a0820151816005015560c0820151816006015f6101000a81548160ff02191690831515021790555060e08201518160060160016101000a81548160ff021916908315150217905550905050857ff961d737cbe74505725c1be3f1ef74db923c3190fc8f9cbbbda1821da86299e086868685876040516106029594939291906001600160a01b03958616815293909416602084015260408301919091526060820152608081019190915260a00190565b60405180910390a2505050505050565b6001546001600160a01b0316331461063c5760405162461bcd60e51b81526004016102219061090a565b5f81815260026020819052604082209081015490910361066e5760405162461bcd60e51b815260040161022190610927565b6006810154610100900460ff16156106ae5760405162461bcd60e51b815260206004820152600360248201526214d15560ea1b6044820152606401610221565b60068101805461ff0019166101001790556004810154600582015460405184927f22732b14125c3c613547ac8877ed782648f8814fba13ee9328fc85f1ca0cb8429261070292918252602082015260400190565b60405180910390a25050565b6001546001600160a01b031633146107385760405162461bcd60e51b81526004016102219061090a565b5f81815260026020819052604082209081015490910361076a5760405162461bcd60e51b815260040161022190610927565b600681015460ff16156107ae5760068101805460ff1916905560405182907f8b18b7454217e469ae6efdc5e595c8c7fc4c367c527efa5fe3d69ad3d9f0b0f6905f90a25b5050565b6001546001600160a01b031633146107dc5760405162461bcd60e51b81526004016102219061090a565b5f81815260026020819052604082209081015490910361080e5760405162461bcd60e51b815260040161022190610927565b600681015460ff166107ae5760068101805460ff1916600117905560405182907ff9b78a8edbe626c7b0e5f800440ebdca49144df8a8e5c1e7230f6ecb2defdaa0905f90a25050565b5f8060408385031215610868575f80fd5b50508035926020909101359150565b80356001600160a01b038116811461088d575f80fd5b919050565b5f602082840312156108a2575f80fd5b6108ab82610877565b9392505050565b5f805f80608085870312156108c5575f80fd5b843593506108d560208601610877565b92506108e360408601610877565b9396929550929360600135925050565b5f60208284031215610903575f80fd5b5035919050565b60208082526003908201526214915360ea1b604082015260600190565b602080825260039082015262554e4b60e81b604082015260600190565b634e487b7160e01b5f52601160045260245ffd5b8082018082111561096b5761096b610944565b92915050565b808202811582820484141761096b5761096b610944565b5f826109a257634e487b7160e01b5f52601260045260245ffd5b500490565b8181038181111561096b5761096b61094456fea264697066735822122085102568f43009ff08d0822800143bb9ab5428e52dad344aaa49393aa558afb064736f6c63430008140033","linkReferences":{}},"methodIdentifiers":{"createEscrow(bytes32,address,address,uint256)":"6e629653","freeze(bytes32)":"ec13cc7b","owner()":"8da5cb5b","relayer()":"8406c079","setRelayer(address)":"6548e9bc","settle(bytes32)":"987757dd","tickStream(bytes32,uint256)":"0f86b9e4","trips(bytes32)":"d3bbcfbd","unfreeze(bytes32)":"9957e7f1"},"id":1}