{"abi":[{"type":"constructor","inputs":[{"name":"_relayer","type":"address","internalType":"address"},{"name":"_cngn","type":"address","internalType":"address"}],"stateMutability":"nonpayable"},{"type":"function","name":"cngn","inputs":[],"outputs":[{"name":"","type":"address","internalType":"address"}],"stateMutability":"view"},{"type":"function","name":"depositEscrow","inputs":[{"name":"id","type":"bytes32","internalType":"bytes32"},{"name":"customer","type":"address","internalType":"address"},{"name":"rider","type":"address","internalType":"address"},{"name":"total","type":"uint256","internalType":"uint256"}],"outputs":[],"stateMutability":"nonpayable"},{"type":"function","name":"freeze","inputs":[{"name":"id","type":"bytes32","internalType":"bytes32"}],"outputs":[],"stateMutability":"nonpayable"},{"type":"function","name":"owner","inputs":[],"outputs":[{"name":"","type":"address","internalType":"address"}],"stateMutability":"view"},{"type":"function","name":"pause","inputs":[],"outputs":[],"stateMutability":"nonpayable"},{"type":"function","name":"paused","inputs":[],"outputs":[{"name":"","type":"bool","internalType":"bool"}],"stateMutability":"view"},{"type":"function","name":"relayer","inputs":[],"outputs":[{"name":"","type":"address","internalType":"address"}],"stateMutability":"view"},{"type":"function","name":"reportDeviation","inputs":[{"name":"id","type":"bytes32","internalType":"bytes32"},{"name":"vector","type":"int256","internalType":"int256"}],"outputs":[],"stateMutability":"nonpayable"},{"type":"function","name":"reportProgress","inputs":[{"name":"id","type":"bytes32","internalType":"bytes32"},{"name":"metersAdvanced","type":"uint256","internalType":"uint256"}],"outputs":[],"stateMutability":"nonpayable"},{"type":"function","name":"reportReentry","inputs":[{"name":"id","type":"bytes32","internalType":"bytes32"}],"outputs":[],"stateMutability":"nonpayable"},{"type":"function","name":"setRelayer","inputs":[{"name":"_r","type":"address","internalType":"address"}],"outputs":[],"stateMutability":"nonpayable"},{"type":"function","name":"setToken","inputs":[{"name":"_c","type":"address","internalType":"address"}],"outputs":[],"stateMutability":"nonpayable"},{"type":"function","name":"settle","inputs":[{"name":"id","type":"bytes32","internalType":"bytes32"}],"outputs":[],"stateMutability":"nonpayable"},{"type":"function","name":"tickStream","inputs":[{"name":"id","type":"bytes32","internalType":"bytes32"},{"name":"amount","type":"uint256","internalType":"uint256"}],"outputs":[],"stateMutability":"nonpayable"},{"type":"function","name":"trips","inputs":[{"name":"","type":"bytes32","internalType":"bytes32"}],"outputs":[{"name":"customer","type":"address","internalType":"address"},{"name":"rider","type":"address","internalType":"address"},{"name":"total","type":"uint256","internalType":"uint256"},{"name":"operationalCap","type":"uint256","internalType":"uint256"},{"name":"streamed","type":"uint256","internalType":"uint256"},{"name":"held","type":"uint256","internalType":"uint256"},{"name":"frozen","type":"bool","internalType":"bool"},{"name":"settled","type":"bool","internalType":"bool"}],"stateMutability":"view"},{"type":"function","name":"unfreeze","inputs":[{"name":"id","type":"bytes32","internalType":"bytes32"}],"outputs":[],"stateMutability":"nonpayable"},{"type":"function","name":"unpause","inputs":[],"outputs":[],"stateMutability":"nonpayable"},{"type":"event","name":"DeviationReported","inputs":[{"name":"id","type":"bytes32","indexed":true,"internalType":"bytes32"},{"name":"vector","type":"int256","indexed":false,"internalType":"int256"},{"name":"timestamp","type":"uint256","indexed":false,"internalType":"uint256"}],"anonymous":false},{"type":"event","name":"EscrowCreated","inputs":[{"name":"id","type":"bytes32","indexed":true,"internalType":"bytes32"},{"name":"customer","type":"address","indexed":false,"internalType":"address"},{"name":"rider","type":"address","indexed":false,"internalType":"address"},{"name":"total","type":"uint256","indexed":false,"internalType":"uint256"},{"name":"operationalCap","type":"uint256","indexed":false,"internalType":"uint256"},{"name":"held","type":"uint256","indexed":false,"internalType":"uint256"}],"anonymous":false},{"type":"event","name":"ProgressReported","inputs":[{"name":"id","type":"bytes32","indexed":true,"internalType":"bytes32"},{"name":"metersAdvanced","type":"uint256","indexed":false,"internalType":"uint256"},{"name":"streamedAfter","type":"uint256","indexed":false,"internalType":"uint256"}],"anonymous":false},{"type":"event","name":"ReentryReported","inputs":[{"name":"id","type":"bytes32","indexed":true,"internalType":"bytes32"},{"name":"timestamp","type":"uint256","indexed":false,"internalType":"uint256"}],"anonymous":false},{"type":"event","name":"StreamFrozen","inputs":[{"name":"id","type":"bytes32","indexed":true,"internalType":"bytes32"}],"anonymous":false},{"type":"event","name":"StreamTicked","inputs":[{"name":"id","type":"bytes32","indexed":true,"internalType":"bytes32"},{"name":"amount","type":"uint256","indexed":false,"internalType":"uint256"},{"name":"streamed","type":"uint256","indexed":false,"internalType":"uint256"}],"anonymous":false},{"type":"event","name":"StreamUnfrozen","inputs":[{"name":"id","type":"bytes32","indexed":true,"internalType":"bytes32"}],"anonymous":false},{"type":"event","name":"TripSettled","inputs":[{"name":"id","type":"bytes32","indexed":true,"internalType":"bytes32"},{"name":"paidOperational","type":"uint256","indexed":false,"internalType":"uint256"},{"name":"paidHeld","type":"uint256","indexed":false,"internalType":"uint256"}],"anonymous":false}],"bytecode":{"object":"0x60803461009057601f610fc638819003918201601f19168301916001600160401b0383118484101761009457808492604094855283398101031261009057610052602061004b836100a8565b92016100a8565b9060018060a01b03199133835f5416175f5560018060a01b0380921683600154161760015516906002541617600255604051610f0990816100bd8239f35b5f80fd5b634e487b7160e01b5f52604160045260245ffd5b51906001600160a01b03821682036100905756fe60806040526004361015610011575f80fd5b5f3560e01c8063049904c314610c825780630f86b9e414610a92578063144fa6d714610a485780633930ea1814610a205780633be14399146106935780633f4ba83a146106605780635c975abb1461063b5780636548e9bc146105f15780638406c079146105c95780638456cb59146105905780638da5cb5b14610569578063987757dd146103d05780639957e7f1146103515780639b7946ad14610295578063d3bbcfbd1461020c578063e7eed5d31461015b5763ec13cc7b146100d4575f80fd5b34610157576020366003190112610157576004356100fd60018060a01b03600154163314610d66565b805f526003602052600660405f2061011a60028201541515610e4e565b01805460ff81161561012857005b60ff191660011790557ff9b78a8edbe626c7b0e5f800440ebdca49144df8a8e5c1e7230f6ecb2defdaa05f80a2005b5f80fd5b346101575760203660031901126101575760043561018460018060a01b03600154163314610d66565b805f526003602052600660405f206101a160028201541515610e4e565b01805460ff81166101da575b827fbdd7c21211b4e133664f57067702e2a8cc9f9164660f2a73f3a9dcb2640f40466020604051428152a2005b60ff19169055807f8b18b7454217e469ae6efdc5e595c8c7fc4c367c527efa5fe3d69ad3d9f0b0f65f80a281806101ad565b34610157576020366003190112610157576004355f52600360205261010060405f2060ff60018060a01b0391828154169260018201541690600281015460038201546004830154916006600585015494015494604051978852602088015260408701526060860152608085015260a0840152818116151560c084015260081c16151560e0820152f35b34610157576040366003190112610157576004356102be60018060a01b03600154163314610d66565b805f526003602052600660405f206102db60028201541515610e4e565b01805460ff81161561031c575b827fc08f7deb03857a9ea059ea18c5e108a89904f7aa54d7f2523a70cd80960b4e2e604080516024358152426020820152a2005b60ff19166001179055807ff9b78a8edbe626c7b0e5f800440ebdca49144df8a8e5c1e7230f6ecb2defdaa05f80a281806102e8565b346101575760203660031901126101575760043561037a60018060a01b03600154163314610d66565b805f526003602052600660405f2061039760028201541515610e4e565b01805460ff81166103a457005b60ff191690557f8b18b7454217e469ae6efdc5e595c8c7fc4c367c527efa5fe3d69ad3d9f0b0f65f80a2005b3461015757602080600319360112610157576001546001600160a01b039190600435906104009084163314610d66565b60029283549261041660ff8560a81c1615610d98565b60ff60a81b19938416600160a81b178086556104389060a01c60ff1615610e1a565b825f526003815260405f20610451868201541515610e4e565b60068101610100815461046a60ff8260081c1615610e80565b61ff0019161790558554600182015460058301805460405163a9059cbb60e01b81529287166001600160a01b0316600484015260248301529490918491839116815f816044810103925af190811561055e575f91610531575b50156105045760040154915460408051938452918301527f22732b14125c3c613547ac8877ed782648f8814fba13ee9328fc85f1ca0cb84291a28154169055005b60405162461bcd60e51b81526004810183905260056024820152640b08c8aa4960db1b6044820152606490fd5b6105519150833d8511610557575b6105498183610dcc565b810190610e02565b876104c3565b503d61053f565b6040513d5f823e3d90fd5b34610157575f366003190112610157575f546040516001600160a01b039091168152602090f35b34610157575f366003190112610157576105b460018060a01b035f54163314610d34565b6002805460ff60a01b1916600160a01b179055005b34610157575f366003190112610157576001546040516001600160a01b039091168152602090f35b346101575760203660031901126101575761060a610d1e565b5f546001600160a01b0391906106239083163314610d34565b166001600160601b0360a01b60015416176001555f80f35b34610157575f36600319011261015757602060ff60025460a01c166040519015158152f35b34610157575f3660031901126101575761068460018060a01b035f54163314610d34565b6002805460ff60a01b19169055005b3461015757608036600319011261015757602480356001600160a01b038116908190036101575760449182356001600160a01b03811691908290036101575760648035906106ec60018060a01b03600154163314610d66565b6002549561070060ff8860a81c1615610d98565b60ff60a81b19878116600160a81b17600255966001600160a01b031680156109f8576004355f526003602052600260405f2001546109cd57604051636eb1769f60e11b81526004810188905230868201526020818481855afa801561055e5785915f91610998575b501061096e5760205f9184604051809481936323b872dd60e01b83528c6004840152308b84015289888401525af190811561055e575f9161094f575b50156109265750604682028281046046148315171561091357049283820392828411610900576040519061010082019082821067ffffffffffffffff8311176108ed57506040528581526020810182815260c06006604084019286845260608501888152608086015f815260a08701918b83525f8689015260e08801965f88526004355f52600360205260405f209460018060a01b038a51166001600160601b0360a01b9081885416178755600187019160018060a01b03905116908254161790555160028501555160038401555160048301555160058201550192015115159060ff61ff0084549251151560081b1692169061ffff19161717905560405194855260208501526040840152606083015260808201527ff961d737cbe74505725c1be3f1ef74db923c3190fc8f9cbbbda1821da86299e060a060043592a2600254166002555f80f35b634e487b7160e01b5f9081526041600452fd5b634e487b7160e01b5f9081526011600452fd5b83634e487b7160e01b5f5260116004525ffd5b642c2322a92360d91b849160056040519362461bcd60e51b855260206004860152840152820152fd5b610968915060203d602011610557576105498183610dcc565b886107a4565b5064414c4c4f5760d81b849160056040519362461bcd60e51b855260206004860152840152820152fd5b9150506020813d6020116109c5575b816109b460209383610dcc565b81010312610157578490518a610768565b3d91506109a7565b506545584953545360d01b849160066040519362461bcd60e51b855260206004860152840152820152fd5b5062544f4b60e81b849160036040519362461bcd60e51b855260206004860152840152820152fd5b34610157575f366003190112610157576002546040516001600160a01b039091168152602090f35b3461015757602036600319011261015757610a61610d1e565b5f546001600160a01b039190610a7a9083163314610d34565b166001600160601b0360a01b60025416176002555f80f35b3461015757610aa036610d08565b60015490916001600160a01b0391610abb9083163314610d66565b600292835492610ad160ff8560a81c1615610d98565b60ff60a81b19938416600160a81b17808655610af39060a01c60ff1615610e1a565b825f526020906003825260405f20610b0f878201541515610e4e565b600681015460ff8116610c575760ff610b2c9160081c1615610e80565b60048101918254610b3d8682610eb2565b600384015410610c2c57610b96928592610b58888094610eb2565b86556001818c5416920154165f60405180968195829463a9059cbb60e01b84526004840160209093929193604081019460018060a01b031681520152565b03925af190811561055e575f91610c0f575b5015610be4575460408051938452918301527ff8f7e226ede783bd6bd61a56e2d62063b1cdba9a55c9f3356459903c1a1babe591a28154169055005b60405162461bcd60e51b815260048082018490526024820152632c2322a960e11b6044820152606490fd5b610c269150833d8511610557576105498183610dcc565b87610ba8565b60405162461bcd60e51b815260048101869052600360248201526204341560ec1b6044820152606490fd5b60405162461bcd60e51b815260048101859052600360248201526223292d60e91b6044820152606490fd5b346101575760407f997602e4443b5c28c69a9622df8c4108d427887a695220b20b27eb2be20b639e610cb336610d08565b610ccb60018060a09694961b03600154163314610d66565b610cdd60ff60025460a01c1615610e1a565b835f5260036020526004825f20610cf960028201541515610e4e565b015482519182526020820152a2005b6040906003190112610157576004359060243590565b600435906001600160a01b038216820361015757565b15610d3b57565b60405162461bcd60e51b815260206004820152600360248201526227aba760e91b6044820152606490fd5b15610d6d57565b60405162461bcd60e51b815260206004820152600360248201526214915360ea1b6044820152606490fd5b15610d9f57565b60405162461bcd60e51b8152602060048201526005602482015264149151539560da1b6044820152606490fd5b90601f8019910116810190811067ffffffffffffffff821117610dee57604052565b634e487b7160e01b5f52604160045260245ffd5b90816020910312610157575180151581036101575790565b15610e2157565b60405162461bcd60e51b8152602060048201526005602482015264504155534560d81b6044820152606490fd5b15610e5557565b60405162461bcd60e51b8152602060048201526003602482015262554e4b60e81b6044820152606490fd5b15610e8757565b60405162461bcd60e51b815260206004820152600360248201526214d15560ea1b6044820152606490fd5b91908201809211610ebf57565b634e487b7160e01b5f52601160045260245ffdfea264697066735822122034386d7e7adb838bbfacb69a96349c9b6e21f67069983ebf08d2cefe9a5beb5b64736f6c63430008140033","linkReferences":{}},"methodIdentifiers":{"cngn()":"3930ea18","depositEscrow(bytes32,address,address,uint256)":"3be14399","freeze(bytes32)":"ec13cc7b","owner()":"8da5cb5b","pause()":"8456cb59","paused()":"5c975abb","relayer()":"8406c079","reportDeviation(bytes32,int256)":"9b7946ad","reportProgress(bytes32,uint256)":"049904c3","reportReentry(bytes32)":"e7eed5d3","setRelayer(address)":"6548e9bc","setToken(address)":"144fa6d7","settle(bytes32)":"987757dd","tickStream(bytes32,uint256)":"0f86b9e4","trips(bytes32)":"d3bbcfbd","unfreeze(bytes32)":"9957e7f1","unpause()":"3f4ba83a"},"id":1}